:100000000C94AC000C94D4000C94D4000C94D40048
:100010000C94D4000C94D4000C946B070C94D40072
:100020000C94D4000C94D4000C94D4000C94D40000
:100030000C94D4000C94D4000C94D4000C94D400F0
:100040000C94770E0C94D4000C94200E0C94FA0DA2
:100050000C94D4000C94D4000C94D4000C94D400D0
:100060000C9421060C94D400072C7AA5BA6CC59088
:10007000DA3B9365FC8BBC53F810FD3C5692834DE4
:10008000BD879D3AB63DCBC9BF5BBE73DA0FC93F92
:100090002C20646174613D3078003A206279746587
:1000A0002D616464726573733D3078003A20776F18
:1000B00072642D616464726573733D3078004E65BF
:1000C0007874207265706F72743A2000536176659F
:1000D00064207265706F7274733A20002D2D2D2D7F
:1000E0002D2D2D2D2D2D2D2D2D2D2D2D2D2D2D006D
:1000F0004170706C69636174696F6E204D6F6E69D9
:10010000746F720000000008000201000003040781
:100110000000000000000000000000002500280092
:100120002B0000000000240027002A00040404041F
:100130000404040402020202020203030303030391
:10014000010204081020408001020408102001026E
:10015000040810209C1B841B11241FBECFEFD8E085
:10016000DEBFCDBF12E0A0E0B1E0E0E3F4E402C006
:1001700005900D92AA3FB107D9F726E0AAEFB2E0A9
:1001800001C01D92AA3BB207E1F710E0CBEAD0E034
:1001900004C02197FE010E94F121CA3AD107C9F794
:1001A0000E9499110C940B220C94000085ED809311
:1001B000BC008091BC0084FDFCCF109286040895A1
:1001C00040911204262F30E0240F311D21323105D9
:1001D000DCF4209186042430C9F4FC0180E090E036
:1001E000861758F4309112042191DC01A051BC4FC4
:1001F000A30FB11D2C930196F3CF80911204680FC9
:100200006093120480E0089581E0089582E00895EB
:100210000895E091FB028091FA02E81730F4F0E0D3
:10022000E05CFB4F808190E008958FEF9FEF089591
:100230009091FB028091FA02981750F4E92FF0E0B8
:10024000E05CFB4F208130E09F5F9093FB0202C097
:100250002FEF3FEFC90108958091FA0290E02091BD
:10026000FB02821B91090895CF92DF92EF92FF92D9
:100270000F931F93CF93DF937C01262F972F8A0133
:1002800080918704882391F0C62FD72F6E01C40E6A
:10029000D51ECC15DD0571F06991D701ED91FC916A
:1002A0000190F081E02DC7010995F3CF642F822FD3
:1002B0000E94E000C801DF91CF911F910F91FF9044
:1002C000EF90DF90CF900895CF93DF931F92CDB73B
:1002D000DEB76983209187042223D1F02091AA04FC
:1002E000203240F021E030E0FC013383228380E0C3
:1002F00090E015C080918804E82FF0E0E757FB4FAD
:10030000998190838F5F809388048093AA0405C0AD
:1003100061E0CE0101960E94E00081E090E00F9044
:10032000DF91CF910895089580E090E008950895B9
:100330002F923F924F925F926F927F928F929F92F5
:10034000AF92BF92CF92DF92EF92FF920F931F93E3
:10035000CF93DF93CDB7DEB7AE970FB6F894DEBF7D
:100360000FBECDBF7C018B0184E2DB01E82F1D9223
:10037000EA95E9F7FE013196DF011D928A95E9F7CA
:10038000F701148213821682158210861782128654
:100390001186148613861686158684E290E0A0E006
:1003A000B0E0FB0180839183A283B383F70141888E
:1003B000528863887488FB01448255826682778202
:1003C000412C512C320143944086518662867386BB
:1003D00089839A83AB83BC83F70185899689A78932
:1003E000B08D8D839E83AF83B88782E090E0A0E0DC
:1003F000B0E089879A87AB87BC8781E080938704C8
:100400008FE18093A904109288041092AA0460E8F6
:100410008BEA94E00E9464010E94600F6DE08FE11E
:100420000E947C0F1092FB028093FA028BEA94E008
:100430000E9418018BEA94E00E941801782F8BEA41
:1004400094E07EA70E941801682F8BEA94E06CA7C5
:100450000E941801382F8BEA94E03DA70E941801F2
:10046000282F8BEA94E02BA70E941801282E8BEAF4
:1004700094E00E941801382E8BEA94E00E94180143
:10048000482E8BEA94E00E941801582E8BEA94E0E3
:100490000E941801682E8BEA94E00E941801782EC1
:1004A0008BEA94E00E941801882E8BEA94E00E9467
:1004B0001801982EEFB7F894809137049091380482
:1004C000A0913904B0913A04EFBFF801808B918B71
:1004D000A28BB38B7EA5B72EA12C6CA5A62AB594B2
:1004E000A794B594A794B5010B2C000C880B990B1D
:1004F0000E942820D80154966D937D938D939C93F0
:1005000057973DA5D32EC12C2BA5B601622B75950F
:10051000679575956795072E000C880B990B0E94BF
:100520002820F801608F718F828F938F522D40E0C9
:10053000BA0163297595679575956795072E000C27
:10054000880B990B0E942820D8015C966D937D93AF
:100550008D939C935F974EA21DA2CDA0DEA0C528CF
:1005600068A61FA2EFA1F8A5E7293F018AA619A650
:1005700089A59AA589294C01D7011496BC92AE92FF
:100580001397F801608D718D828D938D0E94F01FFD
:10059000D70116967C936E931597F801648D758D2F
:1005A000868D978D0E94F01FD70118967C936E93CD
:1005B00017971A96DC92CE9219971C967C926E929F
:1005C0001B971E969C928E921D971F968D919C91C3
:1005D00050978130910579F18230910509F453C02B
:1005E000892B09F084C027EE30ED4CE15BE3F80184
:1005F00064897589868997890E942421D801549637
:100600006D937D938D939C93579727EE30ED4CE13E
:100610005BE358966D917D918D919C915B970E94C3
:100620002421F801608F718F828F938F27EE30ED38
:100630004CE15BE34FC027EE30ED4CE95BE3F801A2
:1006400064897589868997890E942421D8015496E6
:100650006D937D938D939C93579727EE30ED4CE9E6
:100660005BE358966D917D918D919C915B970E9473
:100670002421F801608F718F828F938F27EE30EDE8
:100680004CE95BE327C027EE30ED4CE15CE3F80179
:1006900064897589868997890E942421D801549696
:1006A0006D937D938D939C93579727EE30ED4CE19E
:1006B0005CE358966D917D918D919C915B970E9422
:1006C0002421F801608F718F828F938F27EE30ED98
:1006D0004CE15CE3648D758D868D978D0E9424219D
:1006E000D8015C966D937D938D939C935F9781E089
:1006F000AE960FB6F894DEBF0FBECDBFDF91CF919F
:100700001F910F91FF90EF90DF90CF90BF90AF902F
:100710009F908F907F906F905F904F903F902F9021
:1007200008954F925F926F927F928F929F92AF92B5
:10073000BF92CF92DF92EF92FF920F931F93CF93CE
:10074000DF938C01EB0184E2FB0111928A95E9F7BA
:10075000F80114821382168215821086178284E2B1
:1007600090E0A0E0B0E088839983AA83BB8383856F
:100770009485A585B6858C839D83AE83BF8384E0F5
:1007800090E0A0E0B0E088879987AA87BB872FB761
:10079000F8948091370490913804A0913904B09175
:1007A0003A042FBF888B998BAA8BBB8B81E08093F7
:1007B000870481E28093A904109288041092AA040D
:1007C00060E88BEA94E00E9464010E94600F67E099
:1007D00081E20E947C0F1092FB028093FA028BEA66
:1007E00094E00E9418018BEA94E00E941801482EC0
:1007F0008BEA94E00E941801582E8BEA94E00E9444
:100800001801682E8BEA94E00E941801782E8BEA7A
:1008100094E00E941801882E8BEA94E00E9418014F
:10082000982ED42CC12CC528B6010D2C000C880B99
:10083000990B0E9428206C8B7D8B8E8B9F8BB62C06
:10084000A12CB5016729072E000C880B990B0E947B
:100850002820688F798F8A8F9B8FF82CE12CB70125
:100860006929072E000C880B990B0E9428206C8F99
:100870007D8F8E8F9F8FF801D482C382688D798D92
:100880008A8D9B8D0E94F01FF801768365836C8DA5
:100890007D8D8E8D9F8D0E94F01FF801708767837C
:1008A00081859285843FF1E09F0709F450C02CF5C3
:1008B0008A3F910509F096C020E030E040E05CE31B
:1008C0006C897D898E899F890E9424216C8B7D8B08
:1008D0008E8B9F8B20E030E040E05CE3688D798D6B
:1008E0008A8D9B8D0E942421688F798F8A8F9B8FA0
:1008F00020E030E040E05CE36BC0883EE3E09E0730
:1009000009F446C0803D974009F06CC020E030E01B
:1009100040E85DE36C897D898E899F890E9424214E
:100920006C8B7D8B8E8B9F8B20E030E040E85DE30D
:10093000688D798D8A8D9B8D0E942421688F798F97
:100940008A8F9B8F20E030E040E85DE341C020E0EB
:1009500030E040E85CE36C897D898E899F890E9444
:1009600024216C8B7D8B8E8B9F8B20E030E040E8C8
:100970005CE3688D798D8A8D9B8D0E942421688F20
:10098000798F8A8F9B8F20E030E040E85CE320C0C5
:1009900020E030E040E05DE36C897D898E899F89AD
:1009A0000E9424216C8B7D8B8E8B9F8B20E030E00E
:1009B00040E05DE3688D798D8A8D9B8D0E942421B6
:1009C000688F798F8A8F9B8F20E030E040E05DE375
:1009D0006C8D7D8D8E8D9F8D0E9424216C8F7D8FDF
:1009E0008E8F9F8F25E33AEF4EE85CE36C897D891B
:1009F0008E899F890E9424216C8B7D8B8E8B9F8B8F
:100A000025E33AEF4EE85CE3688D798D8A8D9B8D06
:100A10000E942421688F798F8A8F9B8F25E33AEF7C
:100A20004EE85CE36C8D7D8D8E8D9F8D0E94242120
:100A30006C8F7D8F8E8F9F8F81E0DF91CF911F9183
:100A40000F91FF90EF90DF90CF90BF90AF909F906D
:100A50008F907F906F905F904F900895CF92DF922C
:100A6000EF92FF920F931F93CF93DF93CDB7DEB733
:100A7000A8970FB6F894DEBF0FBECDBF6C018B01F7
:100A800088E2FB01282F11922A95E9F7FE013196A1
:100A90007F0111928A95E9F74BE050E069ED72E031
:100AA000C8010E94FC21F801138681E090E0A0E0DB
:100AB000B0E084879587A687B787F6014189528978
:100AC00063897489F801408B518B628B738B848BA3
:100AD000958BA68BB78B14A215A216A217A2F601AE
:100AE0002785308921303105E1F02230310579F157
:100AF000232B09F045C08AE098EEACE9B1E4F80197
:100B0000808F918FA28FB38F84EF93EDACE9B1EC1E
:100B1000848F958FA68FB78F87EE90EDACE1BBE306
:100B20002BC08AE098EEACE1B2E4F801808F918F9F
:100B3000A28FB38F84EF93EDACE1B2EC848F958FED
:100B4000A68FB78F87EE90EDACE9BBE315C08AE0C6
:100B500098EEACE9B2E4F801808F918FA28FB38F49
:100B600084EF93EDACE9B2EC848F958FA68FB78FAD
:100B700087EE90EDACE1BCE380A391A3A2A3B3A365
:100B80004BE050E069ED72E0C7010E94FC21A8969D
:100B90000FB6F894DEBF0FBECDBFDF91CF911F918E
:100BA0000F91FF90EF90DF90CF900895CF92DF925A
:100BB000EF92FF920F931F93CF93DF937C01FC0181
:100BC000C080D180F1E8CF16FFE3DF0620F4C60134
:100BD000880F991F02C08FEF9FEF0E948F1DF701B2
:100BE0009583848300E010E00C151D05ECF4F701FB
:100BF000C481D5819801220F331FC20FD31F2281D8
:100C00003381213CFFE13F0730F4C901880F991F70
:100C1000880F991F02C08FEF9FEF0E948F1D99834D
:100C200088830F5F1F4FE0CFDF91CF911F910F910E
:100C3000FF90EF90DF90CF9008950C94241E0C94B9
:100C4000241E1F920F920FB60F9211242F933F93E1
:100C50004F935F936F937F938F939F93AF93BF93C4
:100C6000EF93FF938091B900887F803609F49CC090
:100C700068F5883209F45BC090F4803109F454C0FF
:100C800038F4882309F4F6C0883009F44DC0F6C062
:100C9000883109F44CC0803209F45DC0EFC0803463
:100CA00009F468C048F4803309F455C0883309F06A
:100CB000E5C080938404D8C0803509F44FC08835DE
:100CC00009F45DC0883409F0D9C0D6C0883909F468
:100CD000C7C0A8F4883709F467C038F4883609F427
:100CE00063C0803709F460C0C9C0883809F4B8C04F
:100CF000803909F45FC0803809F0C0C05BC0803B18
:100D000009F486C038F4803A09F466C0883A09F4D8
:100D10007FC0B4C0803C09F4A7C0883C09F4A4C0DB
:100D2000883B09F48AC0AAC08091610410C09091E8
:100D3000830480918204981770F5E091830481E028
:100D40008E0F80938304F0E0EE59FB4F80818093F7
:100D5000BB0085EC86C0809384048EC0E091830440
:100D600081E08E0F809383048091BB00F0E0EE5908
:100D7000FB4F808390918304809182046EC0E09148
:100D8000830481E08E0F809383048091BB00F0E0A8
:100D9000EE59FB4F80838091850481116DC081E005
:100DA0008093600484EA61C083E08093860410929B
:100DB0003604CFCF80913604803208F051C0E091E4
:100DC000360481E08E0F809336048091BB00F0E002
:100DD000EA5EFB4F8083BDCF85EC8093BC00109210
:100DE000860480913604803230F4E0913604F0E0DD
:100DF000EA5EFB4F10826091360470E0E0911404CB
:100E0000F091150486E194E009951092360436C0FD
:100E100084E0809386041092130410921204E091EF
:100E20001004F0911104099580911204811105C0FC
:100E300081E0809312041092F003E091130481E0AA
:100E40008E0F80931304F0E0E051FC4F808180937B
:100E5000BB009091130480911204981708F479CF85
:100E600085E88093BC000AC085EC8093BC0010929A
:100E7000860404C0109284040E94D600FF91EF9172
:100E8000BF91AF919F918F917F916F915F914F91A2
:100E90003F912F910F900FBE0F901F9018951092B9
:100EA000860481E0809385041092600482E10E94B0
:100EB000C00F83E10E94C00FE9EBF0E080818E7FDC
:100EC000808380818D7F808388E48093B80085E46F
:100ED0008093BC0008958DB79EB701969093EF0361
:100EE0008093EE030E947407CF93DF9300D0CDB7B9
:100EF000DEB70091EE031091EF03CE0101960E9440
:100F00009010F8018081918190936C0580936B051E
:100F10008A8100916705109168050E5F1F4F482F69
:100F200050E02091690530916A05421753072CF46F
:100F3000F6E08F9F000D111D1124E12CF12CF7011B
:100F4000E959FA4F6481C701800F911F0E94CB1E9F
:100F50008FEFE81AF80A96E0E916F10481F78A8122
:100F60008F5F8A8390E02091690530916A0582172E
:100F7000930714F01A8203C089818F5F89830091DF
:100F80006705109168056981C8010E94CB1E6A81BE
:100F9000C80101960E94CB1E9BE088E10FB6F89431
:100FA000A895809360000FBE90936000FFCFAF9232
:100FB000BF92CF92DF92EF92FF920F931F93CF9346
:100FC000DF93EC018B018617970709F46EC0288127
:100FD0003981FB01808191812817390739F42A81F1
:100FE0003B81828193812817390749F1E12CF12C4B
:100FF000288139818C819D81E216F30684F4970162
:10100000220F331FFC01E20FF31F808191810097B3
:1010100011F00E94241EFFEFEF1AFF0AE9CF00979C
:1010200011F00E94241EF8018081918199838883A8
:10103000828193819B838A83CE010E94D605A881F9
:10104000B98120E030E02A173B077CF5AA80BB80FD
:10105000B901660F771F80E090E040E050E04A154C
:101060005B0504F5F801E480F580F701E60FF71F52
:101070000190F081E02DE80FF91FC080D180E2805F
:10108000F380EC81FD81E60FF71F0190F081E02DE8
:10109000E80FF91FC082D182E282F3824F5F5F4F77
:1010A0000496DDCF2F5F3F4FCECFCE01DF91CF91A2
:1010B0001F910F91FF90EF90DF90CF90BF90AF9076
:1010C0000895AF92BF92CF92DF92EF92FF920F936B
:1010D0001F93CF93DF93EC018B01FB018081918102
:1010E00099838883828193819B838A83CE010E9426
:1010F000D605A881B98120E030E02A173B077CF5AE
:10110000AA80BB80B901660F771F80E090E040E0C5
:1011100050E04A155B0504F5F801E480F580F7011D
:10112000E60FF71F0190F081E02DE80FF91FC08056
:10113000D180E280F380EC81FD81E60FF71F019002
:10114000F081E02DE80FF91FC082D182E282F382A4
:101150004F5F5F4F0496DDCF2F5F3F4FCECFDF91C4
:10116000CF911F910F91FF90EF90DF90CF90BF90A4
:10117000AF9008950F931F93CF93DF938C01C0E03E
:10118000D0E0F8018081918124813581C817D90789
:1011900074F4AE01440F551FF901E40FF51F80816F
:1011A0009181009711F00E94241E2196EACF21150B
:1011B000310539F0C901DF91CF911F910F910C9446
:1011C000241EDF91CF911F910F910895CF93DF934C
:1011D000EC0181E090E0998388839B838A83CE0130
:1011E0000E94D605EC81FD810190F081E02D1082F6
:1011F000118212821382DF91CF9108950F931F9372
:10120000CF93DF93EC01798368835B834A830E94E9
:10121000D6050881198180E090E08017910704F5D8
:10122000AA81BB81BC01660F771F40E050E020E03F
:1012300030E02A173B0794F4EC81FD81E60FF71F9D
:101240000190F081E02DE40FF51F108211821282CF
:1012500013822F5F3F4F4C5F5F4FEBCF0196DDCF87
:10126000DF91CF911F910F910895089508954F92A6
:101270005F926F927F928F929F92AF92BF92CF9226
:10128000DF92EF92FF920F931F93CF93DF93CDB72F
:10129000DEB7A0970FB6F894DEBF0FBECDBFFC013E
:1012A000C982DA82EB82FC820D831E832F8338870A
:1012B00049875A876B877C87C980DA80EB80FC80FE
:1012C0008D819E81AF81B885898F9A8FAB8FBC8FBE
:1012D00089859A85AB85BC858D8F9E8FAF8FB8A38E
:1012E00080819181A281B3818D879E87AF87B88BE2
:1012F00084819581A681B781898B9A8BAB8BBC8BBE
:1013000080859185A285B3858D8B9E8BAF8BB88FA1
:101310002D853E854F855889CA01B9010E94242137
:101320004B015C0129893A894B895C89CA01B90161
:101330000E9424219B01AC01C501B4010E940D1F34
:101340004B015C012D893E894F89588DCA01B90135
:101350000E9424219B01AC01C501B4010E940D1F14
:101360000E9497214B015C01A7019601C701B601BC
:101370000E9424212B013C01298D3A8D4B8D5C8DDF
:10138000CA01B9010E9424219B01AC01C301B20131
:101390000E940D1F2B013C012D8D3E8D4F8D58A1BC
:1013A000CA01B9010E9424219B01AC01C301B20111
:1013B0000E940D1F0E9497212B013C01A70196015D
:1013C0006D857E858F8598890E9424216B017C0123
:1013D000298D3A8D4B8D5C8D69897A898B899C89A1
:1013E0000E9424219B01AC01C701B6010E940D1F80
:1013F0006B017C012D8D3E8D4F8D58A16D897E89AD
:101400008F89988D0E9424219B01AC01C701B601F0
:101410000E940D1F6B017C01A3019201C501B40163
:101420000E9424219B01AC01C701B6010E947E1FCE
:10143000A0960FB6F894DEBF0FBECDBFDF91CF915F
:101440001F910F91FF90EF90DF90CF90BF90AF90E2
:101450009F908F907F906F905F904F900C94FB1EA9
:10146000CF92DF92EF92FF920F931F93CF93DF9370
:101470006C017A018B01C0E0D0E0CE15DF0589F068
:10148000D8016D918D01D601ED91FC910190F08113
:10149000E02DC6010995892B11F47E0102C0219629
:1014A000ECCFC701DF91CF911F910F91FF90EF908B
:1014B000DF90CF900895FC01538D448D252F30E0AF
:1014C000842F90E0821B930B541710F0CF96089551
:1014D00001970895FC01918D828D981761F0828D9E
:1014E000DF01A80FB11D5D968C91928D9F5F9F7358
:1014F000928F90E008958FEF9FEF0895FC01918DFA
:10150000828D981731F0828DE80FF11D858D90E066
:1015100008958FEF9FEF0895FC01918D228D892F03
:1015200090E0805C9F4F821B91098F7399270895EB
:1015300083E795E00E948C0A21E0892B09F420E0E2
:10154000822F0895FC01848DDF01A80FB11DA35ADD
:10155000BF4F2C91848D90E001968F739927848FD3
:10156000A689B7892C93A089B1898C9180648C93CA
:10157000938D848D981306C00288F389E02D8081B5
:101580008F7D80830895EF92FF920F931F93CF93E7
:10159000DF93EC0181E0888F9B8D8C8D981305C0C3
:1015A000E889F989808185FD24C0F62E0B8D10E035
:1015B0000F5F1F4F0F731127E02E8C8DE8120CC0A8
:1015C0000FB607FCFACFE889F989808185FFF5CF4E
:1015D000CE010E94A20AF1CF8B8DFE01E80FF11D12
:1015E000E35AFF4FF0820B8FEA89FB89808180628A
:1015F00007C0EE89FF896083E889F989808180646A
:10160000808381E090E0DF91CF911F910F91FF9057
:10161000EF900895CF93DF93EC01888D8823C9F074
:10162000EA89FB89808185FD05C0A889B9898C91EB
:1016300086FD0FC00FB607FCF5CF808185FFF2CF86
:10164000A889B9898C9185FFEDCFCE010E94A20AAD
:10165000E7CFDF91CF91089580E090E0892B29F0CA
:101660000E94980A81110C9400000895CB010895FE
:101670007F928F929F92AF92BF92CF92DF92EF9222
:10168000FF920F931F93CF93DF93EC0149015A010F
:101690008B01C12CD12C7601C814D904EA04FB04B7
:1016A00084F5F80171908F018F8580FF0BC0E88170
:1016B000F9810084F185E02D20E144E060E070E0F4
:1016C000CE010995EB85FC858D859E85E817F90788
:1016D00038F470828B859C8501969C878B870BC024
:1016E000E881F981672D70E0028CF38DE02DCE0149
:1016F0000995019649F02FEFC21AD20AE20AF20ABE
:10170000CBCFB401C50102C0B601C701DF91CF91B3
:101710001F910F91FF90EF90DF90CF90BF90AF900F
:101720009F908F907F900895CF93DF93EC01E88195
:10173000F9810288F389E02D09958F3F2FEF9207F9
:1017400031F02D813E812F5F3F4F3E832D83DF910E
:10175000CF9108958FEF9FEF089560E070E0CB0187
:10176000089580E090E00895CB010895CF93DF9332
:10177000EC0188899989DC01ED91FC910084F18567
:10178000E02D0995892BA9F388899989DC01ED91D0
:10179000FC910284F385E02DDF91CF910994CF93E2
:1017A000DF93EC0188899989DC01ED91FC9100843B
:1017B000F185E02D0995892BA9F388899989DC01A8
:1017C000ED91FC910484F585E02DDF91CF91099492
:1017D000AF92BF92CF92DF92EF92FF920F931F933F
:1017E000CF93DF9300D000D0CDB7DEB78C015B0183
:1017F000C12CD12C7601F80180899189DC01ED9111
:10180000FC910284F385E02D29833A834B835C832A
:10181000099529813A814B815C818F3F71F0C21615
:10182000D306E406F5064CF4D5018D935D01BFEFB8
:10183000CB1ADB0AEB0AFB0ADECFC701B6010F9019
:101840000F900F900F90DF91CF911F910F91FF900C
:10185000EF90DF90CF90BF90AF900895DC0150964D
:101860008D919C915197DC01ED91FC910084F18563
:10187000E02D099480E090E0089580E090E00895E4
:1018800080E090E0089580E090E008950895CF937F
:10189000DF93C0917105D0917205E881F9810084D0
:1018A000F185E02DCE010995892BB9F3E881F98105
:1018B0000284F385E02DCE01DF91CF9109941F932F
:1018C000CF93DF93182FC0917105D09172058A30A4
:1018D00041F4E881F9810190F081E02D6DE0CE01C5
:1018E0000995E881F9810190F081E02D612FCE0109
:1018F000099521E030E0019711F420E030E0C901C2
:10190000DF91CF911F9108950E94F7210C94241E1E
:10191000089508950C94241EDC01ED91FC913697F6
:1019200020813181820F931F0C948A0CFB0120814E
:101930003181FC0131832083FB0142815381F90114
:10194000369720813181FC01E20FF31F51834083E0
:1019500008952AE531E0FC013183208324E631E05B
:10196000318F208F6AE671E00C94960CDC01ED91CA
:10197000FC91369720813181820F931F0C94A90C22
:10198000CF93DF93EC010E94A90CCE01DF91CF91A0
:101990000C94241EDC01ED91FC913697208131815D
:1019A000820F931F0C94C00C0C94241E089508956C
:1019B0000C94241EDC01ED91FC913697208131813D
:1019C000820F931F0C94D80CFB0120813181FC0104
:1019D00031832083FB0142815381F90136972081B5
:1019E0003181FC01E20FF31F51834083089522ED02
:1019F00031E0FC01318320832CED31E0358B248BE9
:101A000062EE71E00C94E40CDC01ED91FC913697F0
:101A100020813181820F931F0C94F70CCF93DF93B9
:101A2000EC010E94F70CCE01DF91CF910C94241EA3
:101A3000DC01ED91FC91369720813181820F931F5B
:101A40000C940E0D0C94241E0F931F93CF93DF93D1
:101A5000EB0128E2FB0111922A95E9F72BE0E2EE77
:101A6000F2E0DB0101900D922A95E1F71B8641E03F
:101A700050E060E070E04C875D876E877F87FC01F7
:101A80004385548565857685488B598B6A8B7B8B1E
:101A900044E050E060E070E04C8B5D8B6E8B7F8BA0
:101AA0001CA21DA21EA21FA201851285B80180E002
:101AB00090E00E94262025E33AEF4EE85CE30E9486
:101AC0002421688F798F8A8F9B8FB801110F880B23
:101AD000990B0E942820905825E33AEF4EE85CE3EA
:101AE0000E9424216C8F7D8F8E8F9F8F18A219A248
:101AF0001AA21BA2DF91CF911F910F910895DC01D3
:101B0000ED91FC910190F081E02D09940F931F93CA
:101B1000CF93DF938C01EB016F3F8FEF780719F4C0
:101B200080E090E00FC06A3031F46DE0F801808908
:101B300091890E947F0D6C2FF801808991890E9404
:101B40007F0DCE01DF91CF911F910F9108958F925C
:101B50009F92BF92CF92DF92EF92FF920F931F93CB
:101B6000CF93DF9300D000D0CDB7DEB78C014B010F
:101B7000C12CD12C7601C216D306E406F50644F535
:101B8000F401B1904F01FAE0BF120EC06DE0F80110
:101B90008089918929833A834B835C830E947F0DDE
:101BA0005C814B813A8129816B2DF8018089918973
:101BB00029833A834B835C830E947F0DFFEFCF1A0A
:101BC000DF0AEF0AFF0A5C814B813A812981D3CF7A
:101BD000CA01B9010F900F900F900F90DF91CF9134
:101BE0001F910F91FF90EF90DF90CF90BF909F904B
:101BF0008F9008951F920F920FB60F9211242F937A
:101C00003F934F935F936F937F938F939F93AF9384
:101C1000BF93EF93FF9383E795E00E94A20AFF91A1
:101C2000EF91BF91AF919F918F917F916F915F9154
:101C30004F913F912F910F900FBE0F901F901895CD
:101C40001F920F920FB60F9211242F938F939F9391
:101C5000EF93FF93E0918305F09184058081E091FB
:101C60008905F0918A0582FD12C0908180918C05D2
:101C70008F5F8F7320918D05821751F0E0918C0555
:101C8000F0E0ED58FA4F958F80938C0501C080816C
:101C9000FF91EF919F918F912F910F900FBE0F9019
:101CA0001F9018953FB7F89480913C0490913D04A3
:101CB000A0913E04B0913F0426B5A89B05C02F3FDC
:101CC00019F00196A11DB11D3FBFBA2FA92F982F62
:101CD0008827820F911DA11DB11DBC01CD0142E0DD
:101CE000660F771F881F991F4A95D1F708951F9295
:101CF0000F920FB60F9211242F933F938F939F93C0
:101D0000AF93BF938091370490913804A091390428
:101D1000B0913A0430913B0423E0230F2D3720F497
:101D20000196A11DB11D05C026E8230F0296A11D35
:101D3000B11D20933B048093370490933804A09303
:101D40003904B0933A0480913C0490913D04A091F1
:101D50003E04B0913F040196A11DB11D80933C0447
:101D600090933D04A0933E04B0933F04BF91AF9184
:101D70009F918F913F912F910F900FBE0F901F90C9
:101D8000189508950895089590E0FC01E05CFE4FD9
:101D90002491FC01E45DFE4F8491882399F090E04A
:101DA000880F991FFC01EE5DFE4FA591B491FC01D7
:101DB000E85EFE4F859194918FB7F894EC91E22BF9
:101DC000EC938FBF0895009769F0FC01019000200B
:101DD000E9F73197AF01481B590BBC0183E795E048
:101DE0000C94300A80E090E00895CF93DF930E9436
:101DF000E30EEC0184E292E00E94E30E8C0F9D1F43
:101E0000DF91CF910895382F2091AA049091A904D1
:101E1000213208F049C0809186048111FCCF42E054
:101E200040938604309385043FEF309384041092EE
:101E3000830420938204A9E8B4E042E654E0FA0166
:101E40003E2F341B321718F43D913193F9CF109285
:101E5000610420916104990F922B909361049091F9
:101E60006004913061F41092600490916104909349
:101E7000BB009091BC0093FDF8CF95EC01C095EEAE
:101E80009093BC00909186049230E1F39091840489
:101E90009F3F79F080918404803241F080918404E6
:101EA000803331F084E005C081E003C082E001C0EE
:101EB00083E0109288041092AA0410928704089577
:101EC00081E00C94030FCF93C62F91E09093870489
:101ED0009FE19093A904109288041092AA04682F9D
:101EE0008BEA94E00E9464016C2F8BEA94E00E94DC
:101EF0006401CF910C94600F909186049111FCCFF6
:101F000091E090938604909385042FEF20938404AE
:101F100010928304260F2093820490936104909181
:101F20006104880F892B8093610480916004813063
:101F300061F410926004809161048093BB008091F1
:101F4000BC0083FDF8CF85EC01C085EE8093BC001A
:101F5000809186048130E1F380918304861710F428
:101F600060918304A2E6B4E020E434E0F9018E2F0E
:101F7000821B861718F48D918193F9CF862F0895CF
:101F800090E0FC01EC5FFE4F2491FC01E05CFE4F11
:101F90003491FC01E45DFE4FE491EE23B1F1222384
:101FA00039F1233091F038F42130A9F0223001F5D5
:101FB00084B58F7D12C0273091F02830A1F02430F5
:101FC000B9F4809180008F7D03C0809180008F776D
:101FD000809380000DC084B58F7784BD09C0809147
:101FE000B0008F7703C08091B0008F7D8093B000E8
:101FF000F0E0EE0FFF1FE85EFE4FA591B4918FB7A2
:10200000F894EC913E2B3C938FBF0895CF93C82F4B
:1020100081E08093870481E28093A9041092880470
:102020001092AA0463E18BEA94E00E9464016C2F91
:102030008BEA94E00E946401CF910C94600F8F9220
:102040009F92AF92BF920F931F93CF93DF93CDB721
:10205000DEB7A1970FB6F894DEBF0FBECDBF19A2B1
:10206000423008F44AE08E010F5D1F4F842E912C00
:10207000A12CB12CA50194010E94D91EE62FB90113
:10208000CA0101501109EA3014F4E05D01C0E95CB5
:10209000D801EC93232B242B252B61F7C8010E9438
:1020A000E30EA1960FB6F894DEBF0FBECDBFDF9151
:1020B000CF911F910F91BF90AF909F908F900895F7
:1020C0004115510551F4E0917305F09174050190AB
:1020D000F081E02D83E795E009940C941F100F9395
:1020E0001F93CF93DF938C01C0E0D0E0F801EC0F99
:1020F000FD1F6491662371F0E0917305F091740502
:102100000190F081E02D83E795E00995892B11F08E
:102110002196ECCFCE01DF91CF911F910F910895C1
:10212000EF92FF921F93CF93DF93EC01E09067054E
:10213000F0906805C7010E94C31E182F8883C7014D
:1021400001960E94C31E89831F3F11F418820AC0A2
:102150004091690550916A05212F30E042175307DD
:102160000CF4488390E02091690530916A0582174C
:1021700093070CF01982DF91CF911F91FF90EF90A0
:1021800008954F925F926F927F928F929F92AF923B
:10219000BF92CF92DF92EF92FF926B017C01B42E3F
:1021A0009B01AC010E94D721882319F08DEE92E0AB
:1021B00027C026013701E89477F82FEF3FEF4FE76C
:1021C0005FE7C301B2010E94D72181110DC02FEF3B
:1021D0003FEF4FE75FE7C301B2010E94791F181676
:1021E0001CF481EF92E00CC02FEF3FEF4FE75FE46C
:1021F000C701B6010E941F21181684F485EF92E0F2
:10220000FF90EF90DF90CF90BF90AF909F908F9016
:102210007F906F905F904F900C94E30E2FEF3FEF05
:102220004FE75FECC701B6010E94791F87FDE6CF3B
:1022300020E030E0A901C701B6010E94791F87FFA5
:102240000BC06DE283E795E00E947F0D4C01F7FA29
:10225000F094F7F8F09402C0812C912CA12C60E04E
:1022600070E080E09FE3AB1441F020E030E040E21A
:1022700051E40E947E1FA394F6CF9B01AC01C701DD
:10228000B6010E940D1F2B013C010E94F71F6B013C
:102290007C010E9426209B01AC01C301B2010E9477
:1022A0000C1F2B013C014AE0C701B6010E941F1020
:1022B0007C01E80CF91CBB2039F06EE283E795E065
:1022C0000E947F0DE80EF91EDB2CDD2021F120E0BD
:1022D00030E040E251E4C301B2010E9424212B010D
:1022E0003C010E94F71F4B01A12CB12C4AE0C50113
:1022F000B4010E941F10E80EF91EC501B4010E942E
:1023000026209B01AC01C301B2010E940C1F2B01CE
:102310003C01DA94DACFC701FF90EF90DF90CF90C5
:10232000BF90AF909F908F907F906F905F904F90F5
:102330000895CF93DF93CDB7DEB7C456D1090FB65A
:10234000F894DEBF0FBECDBF789484B5826084BDA3
:1023500084B5816084BD85B5826085BD85B58160A9
:1023600085BD80916E00816080936E001092810027
:1023700080918100826080938100809181008160E2
:1023800080938100809180008160809380008091A3
:10239000B10084608093B1008091B000816080932F
:1023A000B00080917A00846080937A0080917A00F6
:1023B000826080937A0080917A00816080937A00B5
:1023C00080917A00806880937A001092C100E09139
:1023D0008305F091840582E08083E0917F05F09190
:1023E00080051082E0918105F091820587E6808367
:1023F00010928B05E0918705F091880586E0808337
:10240000E0918505F0918605808180618083E0916F
:102410008505F0918605808188608083E09185053F
:10242000F0918605808180688083E0918505F09138
:10243000860580818F7D8083CE01C1960E94901099
:1024400089A9811140C09EE088E10FB6F894A89553
:10245000809360000FBE9093600080916000806464
:10246000809360001092FB021092FA02109288048E
:102470001092AA040E944F078AEF90E09093DA042A
:102480008093D9041092D4041092D3041092D604ED
:102490001092D5041092D8041092D70481E0809352
:1024A000870481E28093A904109288041092AA0400
:1024B0006CE08BEA94E00E94640180E00E94030FCC
:1024C0008111E2C0A5C080EF90E00E946F1084E20D
:1024D00092E00E94E30E8CED90E00E946F1084E287
:1024E00092E00E94E30EC9A8D12CE12CF12C8CECD7
:1024F00090E00E946F104AE050E0C701B6010E94D0
:10250000601084E292E00E94E30ECAA8D12CE12C74
:10251000F12C8EEB90E00E946F104AE050E0C70172
:10252000B6010E94601084E292E00E94E30EF12C5A
:102530009E012F5F3F4F690166E0E62EE20E89A9FA
:10254000F81608F080CF8091670590916805029693
:102550002F2D30E04091690550916A052417350709
:102560002CF436E0F39E800D911D112456018C0150
:102570000C191D09EA1449F0C8018A0D9B1D0E941F
:10258000C31ED5018D935D01F5CF89819A81998311
:102590008A836F2D70E080E090E04AE00E941F1077
:1025A0001DA21EA21FA218A689819A819EA38DA397
:1025B0008DA09EA0AFA0B8A48CEA90E00E946F10FE
:1025C00040E150E0C501B4010E9460108AE990E04A
:1025D0000E946F10C501B401660F771F881F991FF5
:1025E00040E150E00E9460108B809C80AD80BE80F6
:1025F00080E990E00E946F1040E150E0C501B40115
:102600000E94601084E292E00E94E30EF39497CF60
:1026100061E081E20E947C0F8093FA028BEA94E0F1
:102620000E941801873D81F580E00E94061080E439
:102630000E9406108EE00E9406100E94520E4B016E
:102640005C0144E6C42ED12CE12CF12C0E94520EE8
:10265000DC01CB0188199909AA09BB09883E93407E
:10266000A105B10558F0B1E0CB1AD108E108F10895
:10267000E8EE8E0EE3E09E1EA11CB11CC114D10435
:10268000E104F10419F705C087E292E00E94F50E1B
:10269000FFCF1092FB021092FA021092880410925F
:1026A000AA040E944F0781E090E09093C7048093B2
:1026B000C6041092BB041092BA041092BD0410928A
:1026C000BC041092BF041092BE041092C104109278
:1026D000C0041092C3041092C2041092C504109258
:1026E000C404809387048FE18093A9041092880426
:1026F0001092AA046DE08BEA94E00E94640180E0ED
:102700000E94030F8111B8C161E08FE10E947C0F2C
:102710008093FA028BEA94E00E941801873C09F04A
:10272000ABC160E08AE20E94630F8091C604909181
:10273000C7048130910539F08230910531F0892B41
:1027400041F460E003C061E001C062E08EE00E94FD
:10275000630F62E08BE20E94630F65E18AE20E94F0
:10276000630F6FE18BE50E94630F60E28CE50E94CE
:10277000630F109203051092040510920505109244
:10278000060510920705109208051092090510928F
:102790000A0510920B0510920C0510920D0510926F
:1027A0000E0510920F05109210051092110510924F
:1027B000120510921305109214051092150510922F
:1027C000160510921705109218051092190510920F
:1027D0001A0510921F0510922005109221051092E3
:1027E000220510922B0510922C0510922D051092A7
:1027F0002E05109237051092380510923905109267
:102800003A05109223051092240510922505109286
:10281000260510922F051092300510923105109266
:10282000320510923B0510923C0510923D05109226
:102830003E0543E050E063E070E0CE0101960E9467
:10284000FE08BE016F5F7F4F81EF94E00E94D707C3
:10285000CE0101960E94BA0841E050E063E070E0CA
:10286000CE0101960E94FE08BE016F5F7F4F8BEE86
:1028700094E00E94D707CE0101960E94BA0841E079
:1028800050E063E070E0CE0101960E94FE08BE01B8
:102890006F5F7F4F85EE94E00E94D707CE010196CF
:1028A0000E94BA0841E050E063E070E0CE0101967A
:1028B0000E94FE08BE016F5F7F4F8FED94E00E9483
:1028C000D707CE0101960E94BA08E091EF04F0917B
:1028D000F004A081B1811D921D921D921C9213974C
:1028E000A281B3811D921D921D921C9213970480A8
:1028F000F581E02D10821182128213828CE090E02B
:102900000E948F1DFC0181EC9AECA1E8BFE380835B
:102910009183A283B3839AE0C92E97EDD92E93EACF
:10292000E92E9CEBF92EC482D582E682F78226EA54
:10293000822E2BE9922E24E4A22E2CE3B22E808646
:102940009186A286B386A091F504B091F604ED932A
:10295000FC938CE090E00E948F1DFC01C082D1822C
:10296000E282F38286EF98E2ACE7BFE3848395834B
:10297000A683B7833AE0C32E37EDD32E33EAE32E96
:102980003BE3F32EC086D186E286F386A091F50460
:10299000B091F6041396FC93EE9312978CE090E0BE
:1029A0000E948F1DFC0180829182A282B382C48228
:1029B000D582E682F78289E891E4A0E8BFE38087C8
:1029C0009187A287B387A091F504B091F60415967C
:1029D000FC93EE93149780E090E0A0E8BFE380932F
:1029E0002C0390932D03A0932E03B0932F031092EA
:1029F000300310923103109232031092330310927D
:102A0000340310923503109236031092370310925C
:102A1000200310922103109222031092230380932B
:102A2000240390932503A0932603B09327031092C9
:102A300028031092290310922A0310922B0310925C
:102A4000140310921503109216031092170310929C
:102A500018031092190310921A0310921B0380930B
:102A60001C0390931D03A0931E03B0931F038FE6D6
:102A700092E00E94F50EE0C288E792E00E94F50E17
:102A8000FFCFBE016F5F7F4FCE01875B9F4F0E94DC
:102A9000D7078C01CE0101960E94BA08B801CE0179
:102AA00001960E946108CE01875B9F4F0E94BA0881
:102AB000BE016F5F7F4F8FED94E00E94D707CE017C
:102AC00001960E94BA08CE01815B9F4F0E94BA080E
:102AD000E091E304F091E404A081B1810D911D9196
:102AE0002D913C91A281B3814D915D916D917C912D
:102AF0000480F581E02D80819181A281B38109ABB1
:102B00001AAB2BAB3CAB4DAB5EAB6FAB78AF89AFC9
:102B10009AAFABAFBCAFC0902C03D0902D03E09028
:102B20002E03F0902F030091300310913103209178
:102B30003203309133034091340350913503609157
:102B4000360370913703CE01C1960E9437092B01DD
:102B50003C0160935C0370935D0380935E039093EC
:102B60005F03C0902003D0902103E0902203F090F7
:102B70002303009124031091250320912603309113
:102B80002703409128035091290360912A037091F3
:102B90002B03CE01C1960E9437094B015C01609363
:102BA0006003709361038093620390936303C0900A
:102BB0001403D0901503E0901603F09017030091D2
:102BC00018031091190320911A0330911B034091AF
:102BD0001C0350911D0360911E0370911F03CE01D1
:102BE000C1960E9437096B017C0120E030E044E38C
:102BF00053E4C301B2010E9424212BED3FE049E4DC
:102C000050E40E947E1F2B013C0160935C03709393
:102C10005D0380935E0390935F0320E030E044E324
:102C200053E4C501B4010E9424212BED3FE049E4A7
:102C300050E40E947E1F4B015C016093600370931F
:102C40006103809362039093630320E030E044E3E8
:102C500053E4C701B6010E9424212BED3FE049E473
:102C600050E40E947E1F6093640370936503809319
:102C70006603909367034092C8035092C903609221
:102C8000CA037092CB038092CC039092CD03A092A2
:102C9000CE03B092CF036093D0037093D10380939F
:102CA000D2039093D3038CE8282E83E0382E810141
:102CB000C12CD12C76014601570126013701D801DC
:102CC0002D913D914D915C91C301B2010E940D1F68
:102CD0002B013C01F8012481358146815781C501D2
:102CE000B4010E940D1F4B015C01D80118962D9173
:102CF0003D914D915C911B97C701B6010E940D1F3C
:102D00006B017C01045F1F4FB3E0083C1B07B9F661
:102D100020E030E040EA50E4C301B2010E947E1F8F
:102D200060938C0370938D0380938E0390938F0335
:102D300020E030E040EA50E4C501B4010E947E1F6B
:102D40006093900370939103809392039093930305
:102D500020E030E040EA50E4C701B6010E947E1F47
:102D600060939403709395038093960390939703D5
:102D7000ECE8F3E084859585A685B785808391830B
:102D8000A283B38380899189A289B389848395833F
:102D9000A683B78384899589A689B7898087918717
:102DA000A287B3873C9623E0E83CF20719F78CE052
:102DB000ECE8F3E0DE01959601900D928A95E1F73B
:102DC0008CE0FE01B596A8E9B3E001900D928A95DA
:102DD000E1F78091980390919903A0919A03B091A3
:102DE0009B03A1968CAF9DAFAEAFBFAFA197809173
:102DF0009C0390919D03A0919E03B0919F036D96BB
:102E00008CAF9DAFAEAFBFAF6D978091A003909197
:102E1000A103A091A203B091A30369968CAF9DAFCB
:102E2000AEAFBFAF69970CE813E0C12CD12C76018F
:102E30004601570126013701A1962CAD3DAD4EAD9F
:102E40005FADA197D8016D917D918D919C910E946C
:102E50000C1F9B01AC010E9424219B01AC01C3010A
:102E6000B2010E940D1F2B013C016D962CAD3DADB2
:102E70004EAD5FAD6D97F801648175818681978154
:102E80000E940C1F9B01AC010E9424219B01AC01FC
:102E9000C501B4010E940D1F4B015C0169962CAD68
:102EA0003DAD4EAD5FAD6997D80118966D917D919E
:102EB0008D919C911B970E940C1F9B01AC010E945D
:102EC00024219B01AC01C701B6010E940D1F6B01BB
:102ED0007C01045F1F4FB3E0083C1B0709F0ACCF37
:102EE00020E030E040E85EE3C301B2010E9424210B
:102EF0002B013C0120E030E040E85EE3C501B40175
:102F00000E9424214B015C0120E030E040E85EE3B8
:102F1000C701B6010E942421F1010485158526858B
:102F200037850083118322833383008911892289A5
:102F30003389048315832683378304891589268979
:102F400037890087118722873387BCE02B0E311C1D
:102F5000E8EC2E16E3E03E06F9F64092500350925C
:102F600051036092520370925303809254039092E3
:102F70005503A0925603B092570360935803709381
:102F8000590380935A0390935B036091A803709157
:102F9000A9038091AA039091AB0342E00E94C11063
:102FA00081ED92E00E94E30E42E060E070E0CB0130
:102FB0000E94C11081ED92E00E94E30E6091E40353
:102FC0007091E5038091E6039091E70342E00E944F
:102FD000C11085ED92E00E94E30E60916003709154
:102FE0006103809162039091630342E00E94C110EB
:102FF00081ED92E00E94E30E60919C0370919D032D
:1030000080919E0390919F0342E00E94C11081ED48
:1030100092E00E94E30E60915403709155038091F9
:1030200056039091570342E00E94C11084E292E05F
:103030000E94E30E0E942C0BA8958091EC039091C6
:10304000ED039C012F5F3F4F3093ED032093EC0382
:10305000092E000CAA0BBB0B80936D0590936E0597
:10306000A0936F05B09370058EEB92E00E94F50E71
:10307000BE016F5F7F4F87EB94E00E9498010E9432
:10308000520E69966CAF7DAF8EAF9FAF69974D883A
:103090005E886F88788C898C9A8CAB8CBC8CCD8C3C
:1030A000DE8CEF8CF8A00E94520E67962EAD3FADDD
:1030B0006797621B730B072E000C880B990B0E94FD
:1030C000282060931B0570931C0580931D05909329
:1030D0001E05409208035092090360920A03709201
:1030E0000B0380920C0390920D03A0920E03B092FA
:1030F0000F03C0921003D0921103E0921203F092DA
:1031000013034092FC025092FD026092FE02709204
:10311000FF028092000390920103A0920203B092FA
:103120000303C0920403D0920503E0920603F092D9
:1031300007038CE0ECEFF2E0DE01DD9601900D92EA
:103140008A95E1F7C0902C03D0902D03E0902E03D8
:10315000F0902F030091300310913103209132033E
:10316000309133034091340350913503609136031D
:1031700070913703CE01CD960E9437092B013C0197
:103180006093A4037093A5038093A6039093A70371
:10319000C0902003D0902103E0902203F0902303FD
:1031A00000912403109125032091260330912703D9
:1031B000409128035091290360912A0370912B03B9
:1031C000CE01CD960E9437094B015C016093A803A4
:1031D0007093A9038093AA039093AB03C090140348
:1031E000D0901503E0901603F09017030091180398
:1031F0001091190320911A0330911B0340911C0375
:1032000050911D0360911E0370911F03CE01CD9656
:103210000E9437096B017C0120E030E044E353E475
:10322000C301B2010E9424212BED3FE049E450E4A8
:103230000E947E1F2B013C016093A4037093A503A1
:103240008093A6039093A70320E030E044E353E487
:10325000C501B4010E9424212BED3FE049E450E474
:103260000E947E1F4B015C016093A8037093A90329
:103270008093AA039093AB0320E030E044E353E44F
:10328000C701B6010E9424212BED3FE049E450E440
:103290000E947E1F6093AC037093AD038093AE03D6
:1032A0009093AF0340921004509211046092120464
:1032B000709213048092140490921504A092160444
:1032C000B0921704609318047093190480931A0441
:1032D00090931B0404ED13E01801C12CD12C76014E
:1032E0004601570126013701D1016D917D918D91E4
:1032F0009C919B01AC010E9424219B01AC01C30164
:10330000B2010E940D1F2B013C01F1016481758106
:10331000868197819B01AC010E9424219B01AC0115
:10332000C501B4010E940D1F4B015C01D10118962B
:103330006D917D918D919C911B979B01AC010E9499
:1033400024219B01AC01C701B6010E940D1F6B0136
:103350007C01BCE02B0E311CE0E12E16E4E03E06C1
:1033600019F620E030E040E85EE3C301B2010E94BC
:1033700024212B013C0120E030E040E85EE3C50160
:10338000B4010E9424214B015C0120E030E040E8C0
:103390005EE3C701B6010E942421D8011C96CD909E
:1033A000DD90ED90FC901F97F801C082D182E282FF
:1033B000F382C088D188E288F3881496CD92DD929A
:1033C000ED92FC9217975496CD90DD90ED90FC9085
:1033D0005797C086D186E286F386045F1F4FF4E0DC
:1033E00000311F07D1F64092E0035092E103609252
:1033F000E2037092E3038092E4039092E503A092CB
:10340000E603B092E7036093E8037093E9038093C7
:10341000EA039093EB03BE016F5F7F4F87EB94E06D
:103420000E9498010E94520E69966CAF7DAF8EAFDC
:103430009FAF69974D885E886F88788C898C9A8C4D
:10344000AB8CBC8CCD8CDE8CEF8CF8A00E94520E25
:1034500067962EAD3FAD6797621B730B072E000C6E
:10346000880B990B0E94282060931B0570931C0504
:1034700080931D0590931E0540924403509245038E
:1034800060924603709247038092480390924903EA
:10349000A0924A03B0924B03C0924C03D0924D03CA
:1034A000E0924E03F0924F0340923803509239035A
:1034B00060923A0370923B0380923C0390923D03EA
:1034C000A0923E03B0923F03C0924003D0924103CA
:1034D000E0924203F0924303E091E904F091EA04A0
:1034E000A081B1814D925D926D927C921397A281E1
:1034F000B3818D929D92AD92BC9213970480F58119
:10350000E02DC082D182E282F38265EE74E0CE01CA
:1035100001960E94610829803A804B805C80CD80B2
:10352000DE80A090EF04B090F004E12CF12CE214C6
:10353000F30494F500E010E0812C912C84149504A0
:103540000CF5D6016D907C90600E711ED501ED9149
:10355000FC91E00FF11F2081318142815381F30101
:1035600060817181828193810E940C1FD3016D93D0
:103570007D938D939C931397BFEF8B1A9B0A0C5FDF
:103580001F4FDCCFEFEFEE1AFE0AF2E0CF0ED11C98
:1035900022E0A20EB11CCBCFBE016F5F7F4FCE01E8
:1035A000815B9F4F0E946108CE0101960E94BA087C
:1035B00061EF74E0CE01875B9F4F0E9461086396C4
:1035C0004EAD5FAD63972B966EAD7FAD2B97CE0161
:1035D00001960E94FE0889819A81A5969FAF8EAFC1
:1035E000A597AB81BC81A396BFAFAEAFA3972D9635
:1035F000EEADFFAD2D976F96FFAFEEAF6F97649670
:103600003FAC649765962FAC65974D805E802F9692
:103610006EAC7FAC2F97E12CF12CA5962EAD3FAD73
:10362000A597E216F3060CF02CCA00E010E0812CFE
:10363000912CA396AEADBFADA3978A169B060CF056
:1036400059C066963FAE669767962FAE6797A12CD6
:10365000B12CC12CD12C6F968EAD9FAD6F97C81633
:10366000D9060CF041C0D2018D919C91FC01E00F74
:10367000F11F6B96FFAFEEAF6B976796EEADFFADA8
:103680006797A191B1916796FFAFEEAF6797F3018E
:1036900080819181FC01EA0DFB1DA00FB11F2D91CE
:1036A0003D914D915C9160817181828193810E94F5
:1036B00024219B01AC016B96AEADBFAD6B976D91B4
:1036C0007D918D919C910E940D1F6B96EEADFFAD8B
:1036D0006B976083718382839383FFEFCF1ADF0A36
:1036E00024E0A20EB11CB7CF9FEF891A990A0C5F94
:1036F0001F4F9FCFBFEFEB1AFB0AE2E04E0E511CAB
:10370000F2E06F0E711C89CF8FED94E00E94BA0831
:1037100085EE94E00E94BA088BEE94E00E94BA080D
:1037200081EF94E00E94BA0888E596E00E94A90C17
:1037300086E896E00C94F70C8F929F92AF92BF921E
:10374000CF92DF92EF92FF92CF93DF93A3E7B5E0A2
:1037500013961C921E92129788EEC82E83E0D82EE4
:10376000E12CF12C1496CD92DD92ED92FC921797FC
:1037700082E391E011969C938E9385EC90E01D96E8
:103780009C938E931C9784EC90E01F969C938E9351
:103790001E9780EC90E051969C938E93509781EC0D
:1037A00090E053969C938E93529782EC90E05596BE
:1037B0009C938E93549786EC90E057969C938E93AF
:1037C000569759961C9259975A961C925A975B96FF
:1037D0001C925B975C961C925C97E6E8F6E041E2EF
:1037E00050E0508F478B118E128E138E96E0892EEB
:1037F000912CA12CB12C848E958EA68EB78E10A202
:1038000011A212A213A220E224A316A215A211A6AD
:1038100088E896E090A787A382ED91E0918380836A
:103820008CED91E0958B848B168215821086178221
:10383000128611861486138616861586108A1786B8
:1038400080EB91E093838283B38BA28B30E1318B49
:10385000E8E5F6E0548F438F158E168E178E80A202
:1038600091A2A2A2B3A214A215A216A217A220A7E7
:1038700012A611A615A612821382148215822EE5B5
:1038800036E034A723A72AE531E03183208324E6FC
:1038900031E0318F208F12861186148613861686AA
:1038A0001586108A1786128A118A148A138A9783BA
:1038B0008683B78BA68B88E0858BB0937205A09327
:1038C000710567E47CE08FE59CE00E94281DEBEA2F
:1038D000F4E013821282C482D582E682F7828CEEF3
:1038E00091E091838083E7E6F5E084EF91E09183B6
:1038F0008083CAE0D0E0D383C28316821782108609
:1039000011868AE00E94C40E89E00E94C40E88E0FD
:103910000E94C40EE2E5F6E0D183C08389E090E026
:103920009383828388E090E09583848385E00E947E
:10393000C40E86E00E94C40E87E00E94C40EECE430
:10394000F6E085E090E09183808386E090E09383C9
:10395000828387E090E09583848310921B05109208
:103960001C0510921D0510921E0581EF94E00E9427
:10397000E6088BEE94E00E94E60885EE94E00E9453
:10398000E6088FED94E00E94E608E0E1F6E0108A98
:10399000118A128A138A148A158A168A178A108E37
:1039A000118E128E138E148E158E168E178E10A2F7
:1039B00011A212A213A214A215A216A217A210A657
:1039C00011A612A613A615A614A616A617A610AA27
:1039D00011AA80E090E0A0E8BFE382AB93ABA4AB78
:1039E000B5AB17AA16AA10AE11AE12AE13AE15865D
:1039F0001486E0EDF4E08EEF91E0918380838CE219
:103A000090E0A1E2B0E083879487A587B687E7EBD3
:103A1000F4E08AE192E0918380838AE090E7A8E075
:103A2000B0E0818B928BA38BB48B8BE090E7A8E006
:103A3000B0E0858B968BA78BB08FDF91CF91FF90F5
:103A4000EF90DF90CF90BF90AF909F908F900895B0
:103A50000F931F93CF93DF93009731F46115710596
:103A600019F480E090E03AC08B01EC016EE070E068
:103A700081E090E00E94731DFC01892B91F380E8A6
:103A800083830115110571F01387028781E8838311
:103A90008091B0069091B106892B21F4F093B10684
:103AA000E093B0062097C9F0D187C08783818260F8
:103AB00083838091B2069091B306892B71F4F093C1
:103AC000B306E093B2068091B4069091B506892BB7
:103AD00021F4F093B506E093B406CF01DF91CF91C6
:103AE0001F910F9108950F931F93CF93DF93869F9C
:103AF0008001879F100D969F100D1124C8010E9410
:103B00008F1DEC01009729F0A80160E070E00E9491
:103B1000BC1ECE01DF91CF911F910F910895CF93DD
:103B2000DF938230910510F482E090E0E091B806D6
:103B3000F091B90620E030E0C0E0D0E0309711F11C
:103B40004081518148175907C0F04817590761F45F
:103B500082819381209719F09B838A832BC0909355
:103B6000B9068093B80626C02115310519F0421711
:103B7000530718F49A01BE01DF01EF010280F381BF
:103B8000E02DDCCF2115310509F1281B390B24303C
:103B9000310590F412968D919C91139761157105E2
:103BA00021F0FB019383828304C09093B906809334
:103BB000B806FD01329644C0FD01E20FF31F819368
:103BC0009193225031092D933C933AC02091B6062F
:103BD0003091B706232B41F420910201309103016B
:103BE0003093B7062093B606209100013091010171
:103BF0002115310541F42DB73EB740910401509194
:103C00000501241B350BE091B606F091B706E217CB
:103C1000F307A0F42E1B3F0B2817390778F0AC01EF
:103C20004E5F5F4F2417350748F04E0F5F1F5093CC
:103C3000B7064093B6068193919302C0E0E0F0E0AE
:103C4000CF01DF91CF9108950F931F93CF93DF930F
:103C5000009709F48CC0FC01329713821282009104
:103C6000B8061091B9060115110581F42081318142
:103C7000820F931F2091B6063091B7062817390797
:103C800079F5F093B706E093B60671C0D80140E02D
:103C900050E0AE17BF0750F412962D913C91139748
:103CA000AD012115310509F1D901F3CF9D01DA01EB
:103CB0003383228360817181860F971F8217930758
:103CC00069F4EC0128813981260F371F2E5F3F4FA1
:103CD000318320838A819B8193838283452B29F4BE
:103CE000F093B906E093B80642C01396FC93EE93A6
:103CF0001297ED01499159919E01240F351FE2174A
:103D0000F30771F480819181840F951F02961196BB
:103D10009C938E938281938113969C938E9312979A
:103D2000E0E0F0E0D80112968D919C9113970097F6
:103D300019F0F8018C01F6CF8D919C9198012E5FBE
:103D40003F4F820F931F2091B6063091B706281778
:103D5000390769F4309729F41092B9061092B80621
:103D600002C0138212821093B7060093B606DF9149
:103D7000CF911F910F910895DC0101C06D934150C7
:103D80005040E0F70895F999FECF92BD81BDF89AB1
:103D9000992780B50895262FF999FECF1FBA92BDB5
:103DA00081BD20BD0FB6F894FA9AF99A0FBE01961C
:103DB0000895A1E21A2EAA1BBB1BFD010DC0AA1F6C
:103DC000BB1FEE1FFF1FA217B307E407F50720F084
:103DD000A21BB30BE40BF50B661F771F881F991FFF
:103DE0001A9469F760957095809590959B01AC0148
:103DF000BD01CF0108959F939F770E9463200F908C
:103E0000002042F49058A2EA2AED3FE049E450E451
:103E10000E94241F0C94E5205058BB27AA270E941B
:103E2000241F0C94E5200E94D72038F00E94DE2049
:103E300020F039F49F3F19F426F40C94AD200EF4D1
:103E4000E095E7FB0C94A720E92F0E94F62058F399
:103E5000BA17620773078407950720F079F4A6F56F
:103E60000C9418210EF4E0950B2EBA2FA02D0B0107
:103E7000B90190010C01CA01A0011124FF27591BAF
:103E800099F0593F50F4503E68F11A16F040A22FB5
:103E9000232F342F4427585FF3CF46953795279526
:103EA000A795F0405395C9F77EF41F16BA0B620B25
:103EB000730B840BBAF09150A1F0FF0FBB1F661F6C
:103EC000771F881FC2F70EC0BA0F621F731F841FAF
:103ED00048F4879577956795B795F7959E3F08F0D5
:103EE000B0CF9395880F08F09927EE0F9795879597
:103EF00008950E94832008F481E008950E94921F93
:103F00000C94E5200E94DE2058F00E94D72040F05B
:103F100029F45F3F29F00C94A72051110C9419212A
:103F20000C94AD200E94F62068F39923B1F3552339
:103F300091F3951B550BBB27AA27621773078407BC
:103F400038F09F5F5F4F220F331F441FAA1FA9F352
:103F500035D00E2E3AF0E0E832D091505040E69540
:103F6000001CCAF72BD0FE2F29D0660F771F881FA1
:103F7000BB1F261737074807AB07B0E809F0BB0B94
:103F8000802DBF01FF2793585F4F3AF09E3F5105A8
:103F900078F00C94A7200C9419215F3FE4F3983E2D
:103FA000D4F3869577956795B795F7959F5FC9F791
:103FB000880F911D9695879597F90895E1E0660F12
:103FC000771F881FBB1F621773078407BA0720F08B
:103FD000621B730B840BBA0BEE1F88F7E0950895F4
:103FE0000E94F71F6894B1110C94192108950E9442
:103FF000FE2088F09F5798F0B92F9927B751B0F05D
:10400000E1F0660F771F881F991F1AF0BA95C9F75C
:1040100014C0B13091F00E941821B1E008950C94C1
:104020001821672F782F8827B85F39F0B93FCCF374
:10403000869577956795B395D9F73EF490958095D9
:10404000709561957F4F8F4F9F4F0895E89409C0F9
:1040500097FB3EF490958095709561957F4F8F4FBB
:104060009F4F9923A9F0F92F96E9BB279395F695D1
:10407000879577956795B795F111F8CFFAF4BB0F4F
:1040800011F460FF1BC06F5F7F4F8F4F9F4F16C0B3
:10409000882311F096E911C0772321F09EE8872F3D
:1040A000762F05C0662371F096E8862F70E060E0F9
:1040B0002AF09A95660F771F881FDAF7880F969572
:1040C000879597F90895DF93CF931F930F938B01F3
:1040D000EC01E8E6F0E00E94B0200E94E5209801A3
:1040E000AE018B01EC0160E070E080E89FE30E948C
:1040F0000C1F0E9497219801AE010F911F91CF9143
:10410000DF910C943721990F0008550FAA0BE0E8B6
:10411000FEEF16161706E807F907C0F01216130689
:10412000E407F50798F0621B730B840B950B39F4C9
:104130000A2661F0232B242B252B21F408950A262F
:1041400009F4A140A6958FEF811D811D089597F96F
:104150009F6780E870E060E008959FEF80EC08952D
:10416000DF93CF931F930F93FF92EF92DF927B0128
:104170008C01689406C0DA2EEF010E943721FE01FF
:10418000E894A5912591359145915591A6F3EF01BC
:104190000E94241FFE019701A801DA9469F7DF90BD
:1041A000EF90FF900F911F91CF91DF910895002420
:1041B0000A941616170618060906089500240A948C
:1041C00012161306140605060895092E0394000C12
:1041D00011F4882352F0BB0F40F4BF2B11F460FFA1
:1041E00004C06F5F7F4F8F4F9F4F089557FD9058CA
:1041F000440F551F59F05F3F71F04795880F97FBAB
:10420000991F61F09F3F79F0879508951216130664
:104210001406551FF2CF4695F1DF08C01616170693
:104220001806991FF1CF86957105610508940895C8
:10423000E894BB2766277727CB0197F908950E945A
:10424000832008F48FEF08950E9437210C94E52015
:104250000E94D72038F00E94DE2020F0952311F034
:104260000C94A7200C94AD2011240C9419210E94C9
:10427000F62070F3959FC1F3950F50E0551F629F94
:10428000F001729FBB27F00DB11D639FAA27F00DAF
:10429000B11DAA1F649F6627B00DA11D661F829FD6
:1042A0002227B00DA11D621F739FB00DA11D621FBB
:1042B000839FA00D611D221F749F3327A00D611DD8
:1042C000231F849F600D211D822F762F6A2F1124BA
:1042D0009F5750409AF0F1F088234AF0EE0FFF1FED
:1042E000BB1F661F771F881F91505040A9F79E3F44
:1042F000510580F00C94A7200C9419215F3FE4F342
:10430000983ED4F3869577956795B795F795E79599
:104310009F5FC1F7FE2B880F911D9695879597F9A2
:10432000089519F416F40C94AD200C94DC210E942D
:10433000FE20B8F39923C9F3B6F39F57550B87FFB7
:104340000E94EA210024A0E640EA90018058569598
:10435000979528F4805C660F771F881F20F026173A
:104360003707480730F4621B730B840B202931296F
:104370004A2BA69517940794202531254A2758F7EC
:10438000660F771F881F20F026173707480730F47D
:10439000620B730B840B200D311D411DA09581F71D
:1043A000B901842F9158880F9695879508950E949A
:1043B0008320880B990B08959F3F31F0915020F492
:1043C000879577956795B795880F911D96958795F1
:1043D00097F9089591505040660F771F881FD2F7C4
:1043E0000895EE0FFF1F0590F491E02D099481E0F0
:1043F00090E0F8940C940B22FB01DC0141505040FA
:1044000048F001900D920020C9F701C01D92415063
:104410005040E0F7089510E0CBEAD0E004C0FE0180
:104420000E94F1212196CC3AD107C9F7F894FFCF29
:104430000000BA0680001800000000000000000024
:10444000E8FFE8FF0000000000001400000000008A
:1044500000000000ECFFECFF000000000000000086
:104460000000C30A300A5B0A0A0B8C0A6A0A7E0A39
:10447000060000000000880C8A0CFAFFFAFF00001A
:10448000890C8C0C180000000000A90CC00CE8FF7F
:10449000E8FF0000B60CCA0C5A010C0116016401B9
:1044A00000000000C10E860C460C430C400C3D0C75
:1044B0003A0CB10BAD0BAA0B940BB40B380B360BAB
:1044C000020000000000D60CD80CFEFFFEFF00002A
:1044D000D70CDA0C00000000C30E220D0000000013
:1044E000C20ED40C460C430C400C3D0C3A0C2E0C66
:1044F000E80BCF0BB60BB40BA70D860D1400000014
:104500000000F70C0E0DECFFECFF0000040D180D81
:10451000D20120012A01DC01000000006401340105
:10452000940108012C01180109010000000036095E
:104530001F0697019103240D0000000000000000F9
:104540009701840C840C0000000035091D069701BA
:1045500098012E050D0A0054686572652077617315
:1045600020612070726F626C656D20646574656394
:1045700074696E6720746865204658415332313043
:10458000303243202E2E2E20636865636B20796FB6
:10459000757220636F6E6E656374696F6E7300531E
:1045A00074617274696E6700546865726520776122
:1045B0007320612070726F626C656D206465746534
:1045C0006374696E67207468652046584F533837A6
:1045D0003030202E2E2E20636865636B20796F7536
:1045E0007220636F6E6E656374696F6E73005468DA
:1045F0006520656E64206973206E696768212121DA
:1046000000202C20002020200046584F53383730FF
:10461000300046584153323130303243006E616EC3
:0A46200000696E66006F7666000008
:107E0000112484B714BE81FFF0D085E080938100F7
:107E100082E08093C00088E18093C10086E0809377
:107E2000C20080E18093C4008EE0C9D0259A86E02C
:107E300020E33CEF91E0309385002093840096BBD3
:107E4000B09BFECF1D9AA8958150A9F7CC24DD24C4
:107E500088248394B5E0AB2EA1E19A2EF3E0BF2EE7
:107E6000A2D0813461F49FD0082FAFD0023811F036
:107E7000013811F484E001C083E08DD089C08234E0
:107E800011F484E103C0853419F485E0A6D080C0E4
:107E9000853579F488D0E82EFF2485D0082F10E0AE
:107EA000102F00270E291F29000F111F8ED06801E7
:107EB0006FC0863521F484E090D080E0DECF843638
:107EC00009F040C070D06FD0082F6DD080E0C81688
:107ED00080E7D80618F4F601B7BEE895C0E0D1E017
:107EE00062D089930C17E1F7F0E0CF16F0E7DF06D8
:107EF00018F0F601B7BEE89568D007B600FCFDCFD4
:107F0000A601A0E0B1E02C9130E011968C91119780
:107F100090E0982F8827822B932B1296FA010C0160
:107F200087BEE89511244E5F5F4FF1E0A038BF0790
:107F300051F7F601A7BEE89507B600FCFDCF97BE46
:107F4000E89526C08437B1F42ED02DD0F82E2BD052
:107F50003CD0F601EF2C8F010F5F1F4F84911BD097
:107F6000EA94F801C1F70894C11CD11CFA94CF0C13
:107F7000D11C0EC0853739F428D08EE10CD085E9AC
:107F80000AD08FE07ACF813511F488E018D01DD067
:107F900080E101D065CF982F8091C00085FFFCCF94
:107FA0009093C60008958091C00087FFFCCF809118
:107FB000C00084FD01C0A8958091C6000895E0E648
:107FC000F0E098E1908380830895EDDF803219F02E
:107FD00088E0F5DFFFCF84E1DECF1F93182FE3DFCA
:107FE0001150E9F7F2DF1F91089580E0E8DFEE27F6
:047FF000FF270994CA
:027FFE00040479
:0400000300007E007B
:00000001FF
